{
  "contractName": "Ethleverage",
  "abi": [
    {
      "constant": false,
      "inputs": [],
      "name": "leverage",
      "outputs": [
        {
          "name": "sufficient",
          "type": "bool"
        }
      ],
      "payable": true,
      "stateMutability": "payable",
      "type": "function"
    },
    {
      "constant": false,
      "inputs": [
        {
          "name": "_addr",
          "type": "address"
        }
      ],
      "name": "setDaiContract",
      "outputs": [
        {
          "name": "success",
          "type": "bool"
        }
      ],
      "payable": false,
      "stateMutability": "nonpayable",
      "type": "function"
    },
    {
      "constant": true,
      "inputs": [
        {
          "name": "",
          "type": "address"
        }
      ],
      "name": "investors",
      "outputs": [
        {
          "name": "layers",
          "type": "uint256"
        },
        {
          "name": "prinContr",
          "type": "uint256"
        },
        {
          "name": "LR",
          "type": "uint256"
        }
      ],
      "payable": false,
      "stateMutability": "view",
      "type": "function"
    },
    {
      "constant": true,
      "inputs": [],
      "name": "owner",
      "outputs": [
        {
          "name": "",
          "type": "address"
        }
      ],
      "payable": false,
      "stateMutability": "view",
      "type": "function"
    },
    {
      "constant": true,
      "inputs": [
        {
          "name": "",
          "type": "uint256"
        }
      ],
      "name": "investorAddresses",
      "outputs": [
        {
          "name": "",
          "type": "address"
        }
      ],
      "payable": false,
      "stateMutability": "view",
      "type": "function"
    },
    {
      "constant": true,
      "inputs": [],
      "name": "CDPContract",
      "outputs": [
        {
          "name": "",
          "type": "address"
        }
      ],
      "payable": false,
      "stateMutability": "view",
      "type": "function"
    },
    {
      "constant": true,
      "inputs": [],
      "name": "eth2Wei",
      "outputs": [
        {
          "name": "",
          "type": "uint256"
        }
      ],
      "payable": false,
      "stateMutability": "view",
      "type": "function"
    },
    {
      "constant": true,
      "inputs": [],
      "name": "DaiContract",
      "outputs": [
        {
          "name": "",
          "type": "address"
        }
      ],
      "payable": false,
      "stateMutability": "view",
      "type": "function"
    },
    {
      "constant": false,
      "inputs": [
        {
          "name": "_addr",
          "type": "address"
        }
      ],
      "name": "setCdpContract",
      "outputs": [
        {
          "name": "success",
          "type": "bool"
        }
      ],
      "payable": false,
      "stateMutability": "nonpayable",
      "type": "function"
    },
    {
      "inputs": [
        {
          "name": "_CDPaddr",
          "type": "address"
        },
        {
          "name": "_Daiaddr",
          "type": "address"
        }
      ],
      "payable": false,
      "stateMutability": "nonpayable",
      "type": "constructor"
    },
    {
      "anonymous": false,
      "inputs": [
        {
          "indexed": false,
          "name": "oldAddress",
          "type": "address"
        },
        {
          "indexed": false,
          "name": "newAddress",
          "type": "address"
        }
      ],
      "name": "LogCDPAddressChanged",
      "type": "event"
    },
    {
      "anonymous": false,
      "inputs": [
        {
          "indexed": false,
          "name": "oldAddress",
          "type": "address"
        },
        {
          "indexed": false,
          "name": "newAddress",
          "type": "address"
        }
      ],
      "name": "LogDaiAddressChanged",
      "type": "event"
    }
  ],
  "bytecode": "0x6060604052670de0b6b3a7640000600555341561001b57600080fd5b604051604080610ac68339810160405280805190602001909190805190602001909190505033600460006101000a81548173ffffffffffffffffffffffffffffffffffffffff021916908373ffffffffffffffffffffffffffffffffffffffff16021790555081600260006101000a81548173ffffffffffffffffffffffffffffffffffffffff021916908373ffffffffffffffffffffffffffffffffffffffff16021790555080600360006101000a81548173ffffffffffffffffffffffffffffffffffffffff021916908373ffffffffffffffffffffffffffffffffffffffff16021790555050506109b2806101146000396000f300606060405260043610610099576000357c0100000000000000000000000000000000000000000000000000000000900463ffffffff1680632c86d98e1461009e5780636aae3f46146100c05780636f7bc9be146101115780638da5cb5b1461016c57806395a25efa146101c1578063a2a2166a14610224578063ace71db914610279578063b3453342146102a2578063ff76efd7146102f7575b600080fd5b6100a6610348565b604051808215151515815260200191505060405180910390f35b34156100cb57600080fd5b6100f7600480803573ffffffffffffffffffffffffffffffffffffffff169060200190919050506104cd565b604051808215151515815260200191505060405180910390f35b341561011c57600080fd5b610148600480803573ffffffffffffffffffffffffffffffffffffffff1690602001909190505061066f565b60405180848152602001838152602001828152602001935050505060405180910390f35b341561017757600080fd5b61017f610699565b604051808273ffffffffffffffffffffffffffffffffffffffff1673ffffffffffffffffffffffffffffffffffffffff16815260200191505060405180910390f35b34156101cc57600080fd5b6101e260048080359060200190919050506106bf565b604051808273ffffffffffffffffffffffffffffffffffffffff1673ffffffffffffffffffffffffffffffffffffffff16815260200191505060405180910390f35b341561022f57600080fd5b6102376106fe565b604051808273ffffffffffffffffffffffffffffffffffffffff1673ffffffffffffffffffffffffffffffffffffffff16815260200191505060405180910390f35b341561028457600080fd5b61028c610724565b6040518082815260200191505060405180910390f35b34156102ad57600080fd5b6102b561072a565b604051808273ffffffffffffffffffffffffffffffffffffffff1673ffffffffffffffffffffffffffffffffffffffff16815260200191505060405180910390f35b341561030257600080fd5b61032e600480803573ffffffffffffffffffffffffffffffffffffffff16906020019091905050610750565b604051808215151515815260200191505060405180910390f35b6000806000806103566108f2565b60008060003373ffffffffffffffffffffffffffffffffffffffff1673ffffffffffffffffffffffffffffffffffffffff168152602001908152602001600020608060405190810160405290816000820154815260200160018201548152602001600282015481526020016003820180548060200260200160405190810160405280929190818152602001828054801561041357602002820191906000526020600020905b815460001916815260200190600101908083116103fb575b5050505050815250509150600180548060010182816104329190610921565b9160005260206000209001600033909190916101000a81548173ffffffffffffffffffffffffffffffffffffffff021916908373ffffffffffffffffffffffffffffffffffffffff160217905550506001826000018181525050348260200181815250508482604001818152505081602001519250600090505b838110156104c15780806001019150506104ac565b60019550505050505090565b600080600460009054906101000a900473ffffffffffffffffffffffffffffffffffffffff1673ffffffffffffffffffffffffffffffffffffffff163373ffffffffffffffffffffffffffffffffffffffff1614151561052c57600080fd5b600073ffffffffffffffffffffffffffffffffffffffff168373ffffffffffffffffffffffffffffffffffffffff161415151561056857600080fd5b600360009054906101000a900473ffffffffffffffffffffffffffffffffffffffff16905082600360006101000a81548173ffffffffffffffffffffffffffffffffffffffff021916908373ffffffffffffffffffffffffffffffffffffffff1602179055507f2153c1b9a57e26525a5ff5c21343f5d0b95686b7655a08b26bf863f20cce5c508184604051808373ffffffffffffffffffffffffffffffffffffffff1673ffffffffffffffffffffffffffffffffffffffff1681526020018273ffffffffffffffffffffffffffffffffffffffff1673ffffffffffffffffffffffffffffffffffffffff1681526020019250505060405180910390a16001915050919050565b60006020528060005260406000206000915090508060000154908060010154908060020154905083565b600460009054906101000a900473ffffffffffffffffffffffffffffffffffffffff1681565b6001818154811015156106ce57fe5b90600052602060002090016000915054906101000a900473ffffffffffffffffffffffffffffffffffffffff1681565b600260009054906101000a900473ffffffffffffffffffffffffffffffffffffffff1681565b60055481565b600360009054906101000a900473ffffffffffffffffffffffffffffffffffffffff1681565b600080600460009054906101000a900473ffffffffffffffffffffffffffffffffffffffff1673ffffffffffffffffffffffffffffffffffffffff163373ffffffffffffffffffffffffffffffffffffffff161415156107af57600080fd5b600073ffffffffffffffffffffffffffffffffffffffff168373ffffffffffffffffffffffffffffffffffffffff16141515156107eb57600080fd5b600260009054906101000a900473ffffffffffffffffffffffffffffffffffffffff16905082600260006101000a81548173ffffffffffffffffffffffffffffffffffffffff021916908373ffffffffffffffffffffffffffffffffffffffff1602179055507f7320b42b2b90fcd2bbf11ae01f452a88138e4bd12d1751e1863f50169d978e368184604051808373ffffffffffffffffffffffffffffffffffffffff1673ffffffffffffffffffffffffffffffffffffffff1681526020018273ffffffffffffffffffffffffffffffffffffffff1673ffffffffffffffffffffffffffffffffffffffff1681526020019250505060405180910390a16001915050919050565b60806040519081016040528060008152602001600081526020016000815260200161091b61094d565b81525090565b815481835581811511610948578183600052602060002091820191016109479190610961565b5b505050565b602060405190810160405280600081525090565b61098391905b8082111561097f576000816000905550600101610967565b5090565b905600a165627a7a723058200a6badbec0567ce829d456cc62cf9a88d5cd2704c484ce9aa837641fa7e720b60029",
  "source": "pragma solidity ^0.4.18;\n\n//To-Do: be sure to complete the ETH_Address authorization\ncontract Ethleverage {\n\n\t//events\n\tevent LogCDPAddressChanged(address oldAddress, address newAddress);\n\tevent LogDaiAddressChanged(address oldAddress, address newAddress);\n\n\t//Variables\n\tstruct Investor {\n\t\tuint layers;\t\t\t\t// number of layers down\n\t\tuint prinContr;\t\t\t// principle contribution in Eth\n\t\tuint LR; \t\t\t\t\t\t// liquidation ratio\n\t\tbytes32[] cdps;\t\t\t//array of CDPs\n\t}\n\n\tmapping (address => Investor) public investors;\n\taddress[] public investorAddresses;\n\taddress public CDPContract;\n\taddress public DaiContract;\n\taddress public owner;\n\tuint public eth2Wei = 1e18;\n\n\n\t//Modifiers\n\tmodifier onlyOwner {\n\t\trequire(msg.sender == owner);\n\t\t\t_;\n\t}\n\n\t//Functions\n\tfunction Ethleverage(address _CDPaddr, address _Daiaddr) public {\n\t\towner = msg.sender;\n\t\tCDPContract = _CDPaddr;\n\t\tDaiContract = _Daiaddr;\n\t}\n\n\tfunction leverage(/*uint _pricefloorORLeverage*/) payable public returns (bool sufficient) {\n\t\t//TO-DO: w/ price floor or leverage ratio, determine the number of layers and LR\n\t\tuint calcLR;\n\t\tuint calcLayers;\n\t\tuint recycledEth;\n\n\n\t\tInvestor memory sender;\n\t\tsender = investors[msg.sender];\n\t\tinvestorAddresses.push(msg.sender);\n\t\tsender.layers = 1; //production = calcLayers; test = 1\n\t\tsender.prinContr = msg.value;\n\t\tsender.LR = calcLR;\n\n\t\trecycledEth = sender.prinContr;\n\t\t// for email contract reference: https://github.com/makerdao/sai/blob/master/src/tub.sol\n\t\tfor (uint i = 0; i < calcLayers; i++) {\n\t\t\t\t\t// take out a CDPContract\n\t\t\t\t\t/*\n\t\t\t\t\tsender.cdps.push(CDPContract.open());\n\t\t\t\t\tCDPContract.lock(sender.cdps[i], recycledEth*eth2Wei); //TO-DO: need to check the amount of wad sent!\n\t\t\t\t\t// TO-DO: still need to transfer ownership\n\t\t\t\t\tCDPContract.draw(sender.cdps[i], recycledEth*eth2Wei);\n\n\t\t\t\t\t//TO-DO: recycledEth = Add exchange call made here;\n\t\t\t\t\t*/\n\t\t\t}\n\n\t\treturn true;\n\t }\n\n\t\t// Update the address of the makerDAO CDP contract\n\tfunction setCdpContract(address _addr) onlyOwner public returns (bool success) {\n\t\trequire(_addr != address(0));\n\t\taddress old = CDPContract;\n\t\tCDPContract = _addr;\n\t\tLogCDPAddressChanged(old, _addr);\n\t\treturn true;\n\t }\n\n\t function setDaiContract(address _addr) onlyOwner public returns (bool success) {\n\t\t require(_addr != address(0));\n\t\t address old = DaiContract;\n\t\t DaiContract = _addr;\n\t\t LogDaiAddressChanged(old, _addr);\n\t\t return true;\n\t\t}\n}\n",
  "sourcePath": "/Users/home/Desktop/Blockchain/ethdenver/contracts/Ethleverage.sol",
  "compiler": {
    "name": "solc",
    "version": "0.4.18+commit.9cf6e910.Emscripten.clang"
  },
  "schemaVersion": "1.0.1",
  "updatedAt": "2018-02-17T18:33:09.335Z"
}